:100000000C9492050C94CA050C94CA050C94CA056C
:100010000C94C4210C94CA050C94CA050C94CA050E
:100020000C94CA050C94CA050C94792A0C944D2B97
:100030000C9426240C94CA050C94CA050C94CA0589
:100040000C94CA050C94CA050C94CA050C94CA05F4
:100050000C94CA050C94C9240C94CA050C94CA05C6
:100060000C94CA050C94CA050C94CA050C94CA05D4
:100070000C94CA050C94CA050C94CA050C94CA05C4
:100080000C94CA050C94CA050C94CA050C94CA05B4
:100090000C94CA050C94CA050C94CA050C94CA05A4
:1000A0000C94CA050C94CA050C94CA0529001E00BC
:1000B0001F00200021002200230000002B00000070
:1000C00014001A000800150017000000E0000000EE
:1000D00004001600070009000A000000E10000000B
:1000E0001D001B000600190005000000215235000C
:1000F000E300E2008B002C0000000000240025003B
:10010000260027002D002E0089002A001C00180060
:100110000C00120013002F00300028000B000D000F
:100120000E000F00330034003200000011001000F8
:1001300036003700380087005200E5002C008A00A6
:100140008800E6002152500051004F0066003A003E
:100150003B003C003D003E003F0000003900000035
:100160000100010001000100010000000100000089
:10017000810080007F00B00001000000010000004D
:1001800001000100010001000100000021520100F6
:1001900001000100010001000000000040004100DA
:1001A000420043004400450049004C0001000100AA
:1001B000460047004800520001000100550054006D
:1001C0004A004B0050004F0001000000570056004D
:1001D0004D004E0051000100E5000100010001004A
:1001E0000100010021524C00E700E4000100010081
:1001F00001000100010001000100000001000000F9
:1002000001000100010001000100000001000000E8
:1002100001000100010001000100000001000000D8
:1002200001000100010001000100000001000100C7
:1002300001000100010001000000000001000100B8
:1002400001000100010001000100010001000100A6
:100250000100010001000100010001000100010096
:100260000100010001000100010000000100010087
:100270000100010001000100010001000100010076
:100280000100010001000100010001000100010066
:100290000100010001000100010000000100000058
:1002A0000100010001000100010000000100000048
:1002B0000100010001000100010000000100000038
:1002C0000100010001000100010000000100010027
:1002D0000100010001000100000000000100010018
:1002E0000100010001000100010001000100010006
:1002F00001000100010001000100010001000100F6
:1003000001000100010001000100000001000100E6
:1003100001000100010001000100010001000100D5
:1003200001000100010001000100010001000100C5
:1003300001000100010001000100000001000000B7
:1003400001000100010001000100000001000000A7
:100350000100010001000100010000000100000097
:100360000100010001000100010000000100010086
:100370000100010001000100000000000100010077
:100380000100010001000100010001000100010065
:100390000100010001000100010001000100010055
:1003A0000100010001000100010000000100010046
:1003B0000100010001000100010001000100010035
:1003C0000100010001000100010001004445425507
:1003D000473A2064697361626C65642E0A00444583
:1003E0004255473A20656E61626C65642E0A000AC8
:1003F0000025303258006C65645F7461736B3A207D
:10040000004F6E6573686F743A2061637469766536
:100410003A2025640A000A0025303862003A20009C
:1004200025303258000A722F632030313233343590
:1004300036370A0054617267657420636F6E6E65AB
:10044000637465640D0A00546172676574206469A1
:1004500073636F6E6E65637465642C207468726F6D
:1004600074746C696E6720636F6E6E656374696F18
:100470006E20617474656D7074730D0A0046616955
:100480006C656420746F20657865637574652025DC
:10049000730A0000000000000000002A2B28000062
:1004A0000000000000000000000000000000290023
:1004B0000000002C1E3420212224342627252E362D
:1004C0002D3738271E1F202122232425263333369B
:1004D0002E37381F0405060708090A0B0C0D0E0FEE
:1004E000101112131415161718191A1B1C1D2F3171
:1004F00030232D350405060708090A0B0C0D0E0FD5
:10050000101112131415161718191A1B1C1D2F3150
:1005100030354C000000000000000000000000002A
:1005200000000000000000000000000000000000CB
:10053000000000000000007E0F00D4FFFFFFC70096
:100540000000783F00433E20004C25640A000A0961
:100550002D20537461747573202D0A686F73745F56
:100560006B6579626F6172645F6C65647328293AA8
:1005700020253032580A6B6579626F6172645F7052
:10058000726F746F636F6C3A20253032580A6B6556
:1005900079626F6172645F69646C653A20253032FC
:1005A000580A74696D65725F726561643332282917
:1005B0003A202530386C580A002573000A092D208E
:1005C000436F6E736F6C65202D0A4553432F713A4C
:1005D00009717569740A000A092D204D6167696304
:1005E000202D0A443A094465627567204D6573738E
:1005F00061676520546F67676C650A583A094D61F9
:1006000074726978204465627567204D6F64652057
:10061000546F67676C65202D2053686F77206B657A
:10062000797072657373657320696E206D61747281
:10063000697820677269640A4B3A094B6579626F81
:1006400061726420446562756720546F67676C65EA
:10065000202D2053686F77206B65797072657373F6
:10066000207265706F72740A4D3A0944656275674D
:10067000204D6F75736520546F67676C650A563A35
:100680000956657273696F6E0A533A09537461743F
:1006900075730A433A09416374697661746520434E
:1006A0006F6E736F6C65204D6F64650A46312D4621
:1006B00031303A0953776974636820746F204C6154
:1006C00079657220302D392028463130203D204C6C
:1006D00030290A302D393A095377697463682074D8
:1006E0006F204C6179657220302D390A475241568E
:1006F000453A0953776974636820746F204C6179B7
:10070000657220302028616C7465726E6174652991
:100710000A423A094A756D7020746F20426F6F74F7
:100720006C6F616465720A4553433A094A756D708E
:1007300020746F20426F6F746C6F61646572202843
:10074000616C7465726E617465290A453A0950726C
:10075000696E7420454550524F4D2053657474693D
:100760006E67730A4241434B53504143453A094334
:100770006C65617220454550524F4D0A006B65799A
:100780006D61705F636F6E6669672E7261773A2084
:10079000253032580A2E737761705F636F6E747202
:1007A0006F6C5F636170736C6F636B3A2025750AC1
:1007B0002E636170736C6F636B5F746F5F636F6EDA
:1007C00074726F6C3A2025750A2E737761705F6CB6
:1007D00063746C5F6C6775693A2025750A2E7377B0
:1007E00061705F7263746C5F726775693A2025751A
:1007F0000A2E737761705F6C616C745F6C677569EA
:100800003A2025750A2E737761705F72616C745F90
:10081000726775693A2025750A2E6E6F5F67756974
:100820003A2025750A2E737761705F67726176656D
:100830005F6573633A2025750A2E737761705F6276
:1008400061636B736C6173685F6261636B7370612A
:1008500063653A2025750A2E6E6B726F3A202575F6
:100860000A2E737761705F6573636170655F6361A2
:1008700070736C6F636B3A2025750A00646562754E
:10088000675F636F6E6669672E7261773A20253005
:1008900032580A2E656E61626C653A2025750A2E03
:1008A0006D61747269783A2025750A2E6B657962DC
:1008B0006F6172643A2025750A2E6D6F7573653A03
:1008C0002025750A006565636F6E6669673A0A647C
:1008D000656661756C745F6C617965723A20257527
:1008E0000A003F000A6D6F7573653A206F66660AED
:1008F000000A6D6F7573653A206F6E0A000A6B65AA
:1009000079626F6172643A206F66660A000A6B65ED
:1009100079626F6172643A206F6E0A000A6D6174C9
:100920007269783A206F66660A000A6D61747269AE
:10093000783A206F6E0A000A64656275673A206F24
:1009400066660A000A64656275673A206F6E0A007F
:100950000A0A4A756D70696E6720746F20626F6F46
:10096000746C6F616465722E2E2E2000433E200051
:10097000436C656172696E6720454550524F4D0A60
:10098000000A002530325820006B6579626F617271
:10099000645F7265706F72743A20005B735D005B18
:1009A000575D005B535D005B525D005B445D005B27
:1009B000435D001003730070006800680020006A47
:1009C00000700000001603610020006200690074DE
:1009D0000020006B0065007900730000000403092B
:1009E0000409027B00040100A0FA090400000103CD
:1009F00001010009211101000122400007058103C6
:100A0000080001090401000203000000092111018E
:100A100000012222000705820320000107050303CD
:100A20002000010904020001030000000921110156
:100A3000000122320007058403200001090403009D
:100A40000203000000092111010001222200070514
:100A500085032000010705050320000112010002A3
:100A600000000008FEFF0100010201020001063142
:100A7000FF0974A1010975150026FF00952075086E
:100A800081020976150026FF00952075089102C0A5
:100A90000660FF0961A1010962150026FF0095208B
:100AA000750881020963150026FF009520750891DD
:100AB00002C005010980A101850319012AB70015AB
:100AC0000126B700950175108100C0050C0901A130
:100AD00001850419012AA002150126A002950175BD
:100AE000108100C005010906A101050719E029E7E9
:100AF0001500250195087501810295017508810190
:100B00000507190029FF150026FF009506750881C5
:100B100000050819012905950575019102950175D2
:100B2000039101C011241FBECFEFDAE0DEBFCDBFBD
:100B300004B603FE18C080918E0390918F03A0919C
:100B40009003B09191038730904BA740B04B59F47C
:100B500010928E0310928F031092900310929103C3
:100B6000E0E0F8E3099512E0A0E0B1E0E2E0FCE5A6
:100B700002C005900D92AA39B107D9F723E0AAE97E
:100B8000B2E001C01D92AE38B207E1F70E948419AD
:100B90000C94AD2D0C940000FF93EF93E0919A021A
:100BA000F0919B02309709F00995EF91FF9108951C
:100BB000FC018591803011F0EFDFFBCF0895FF2716
:100BC000E0E230E247FF0CC0419597FF09C0EDE23B
:100BD0006095709580959095611D711D811D911D89
:100BE00027FF02C0219530E350E2AA27660F771F46
:100BF000881F991FAA1FA41710F0A41B63955A956C
:100C0000A9F7AA3008F0A95FA05DAF93F39561152D
:100C100071058105910541F7ED3211F4EF93F395DC
:100C2000F21718F43F93F395FBCF8F91B5DFFA9548
:100C3000E1F70895E991F9918591803021F08532AD
:100C400019F0AADFF9CF089520E0E89455915532C4
:100C5000C1F3503311F4689455915A3348F450530A
:100C600090F3220F022E220F220F200D250FF4CF1A
:100C70000EF4219589919991533619F3533729F13F
:100C8000533559F1BC0188279927E8945C3621F443
:100C90008991999168945591543639F446EF7EF0D4
:100CA00077FF0DC08FEF9FEF0AC055374AE039F04C
:100CB000583540E121F0523642E009F00895FF93A3
:100CC000EF937DDFEF91FF91B7CFFF93EF93FC019F
:100CD00081918030B9F360DFFBCFFF93EF9368DF42
:100CE000F1CFDF93CF93CDB7DEB72596A3DFCF91BA
:100CF000DF91089581E0089508950895089585E0AD
:100D000008958530C8F46A30B8F44830A8F4E62F66
:100D1000F0E09AE0899FE00DF11D112483E0EE0FD1
:100D2000FF1F8A95E1F7E40FF11DEE0FFF1FE45559
:100D3000FF4F85919491089581E090E0089581E0BE
:100D400008950E947A06089508950E94A4060895C1
:100D5000A5E0B0E0EEEAF6E00C942D2D49835A832D
:100D60003091A10289819A81311119C0662399F0CD
:100D7000222389F00E94BB0C182F682F89819A8149
:100D80000E94980C69817A81812F0E94C413259654
:100D9000E3E00C94492D0E94A90C182FF3CF0E9478
:100DA000BB0C69817A81F1CFFC01262F40815181F2
:100DB0006281738184810E94A806089581E008956C
:100DC000CF93DF93EC0160E00E94D406BE010E9445
:100DD000A506DF91CF91089508950E948E0B0E9481
:100DE000EC062FEF84E39CE0215080409040E1F737
:100DF00000C0000008950E94ED060E94ED240895B1
:100E00000E94ED060E94112508950F931F93CF9322
:100E1000DF938C0161E00E94D406EC01B8010E94CE
:100E2000F719811106C080E0DF91CF911F910F91DA
:100E30000895B801CE010E94A1068823A1F3B8014C
:100E4000CE010E949720882371F3B801CE010E9441
:100E5000F61A882341F3B801CE010E9409208823A5
:100E600011F3B801CE010E94DB208823E1F2F801E2
:100E70008281882369F0C330FCE7DF0781F160F4E9
:100E8000C130ECE7DE0769F1C0F4C115DC4791F031
:100E9000C8010E949F06C8CFCB35ECE7DE0739F1C9
:100EA000CC35FCE7DF0701F1CA35DC4789F70E9442
:100EB0002111EECF0E94FB06B6CF90912203892F1D
:100EC0008E7F90FF81608093220380FF05C08EEDAE
:100ED00093E00E94D805A7CF8CEC93E0FACF0E9454
:100EE00029110E9400079FCF0E941711D1CF0E94A5
:100EF0002511CECF0E9403240E94B80708950E94B6
:100F0000BC070E9408240895829590E09C01220F5E
:100F1000331F220F331F2C7C9595879595958795C8
:100F20008373282B30E0C901880F991F8A7A359581
:100F300027952575822B089581E008950895CF9314
:100F4000DF93D82F0E949C07C82F882319F08D2F7C
:100F50000E949E078C2FDF91CF9108950895CF9323
:100F6000C82F0E947E068C2F0E949F07CF91089564
:100F700080E00E94AF0708950E94EA220E94AF0716
:100F80000895CF930E94EA22C82F80919C028C176B
:100F900089F1C0939C020E94922460939D027093F9
:100FA0009E0280939F029093A0028091220382FF71
:100FB0001EC080FF1CC086EF93E00E94D805809180
:100FC000220380FF14C01F92CF9381EF93E09F9381
:100FD0008F930E947106809122030F900F900F90C3
:100FE0000F9080FF04C08FEE93E00E94D8058C2FF5
:100FF0000E94AF07CF910895ABE0B0E0E2E0F8E0E7
:101000000C942E2D4F83588769877A878B876111BF
:101010000E944F101E821D8285E0FE013796DE0180
:10102000119601900D928A95E1F78C819D81892B13
:1010300061F449815A816B817C818D819E810E94FE
:10104000770F2B96E2E00C944A2D89819A818923AF
:101050008F3F79F3CE0101960E94DE068111E9CF20
:10106000F0CFFC01808191810E94E80C0895CF931C
:10107000C82F8823C9F08238C9F40E94EA2281FD72
:1010800013C089E30E9407100E9470102FEF87EEB3
:1010900093E0215080409040E1F700C0000089E3D8
:1010A0000E940F100E947010CF9108958338A1F410
:1010B0000E94EA2280FDF8CF83E50E9407100E947B
:1010C00070102FEF81EE94E0215080409040E1F7C6
:1010D00000C0000083E5E4CF8438A1F40E94EA2236
:1010E00082FDE2CF87E40E9407100E9470102FEF6C
:1010F00081EE94E0215080409040E1F700C0000074
:1011000087E4CECF8CEF8C0F813AB8F48C2F0E94FD
:101110001B1E8111C9CF6C2F80910001909101019C
:101120000E949E23882329F08C2F0E940F100E947A
:1011300070108C2F0E940710B5CF80E28C0F883082
:1011400048F4C77081E001C0880FCA95EAF70E9491
:101150003210A8CFEBE5EC0FE33040F4F0E0E958B3
:10116000FE4F808190E00E9442239ECFC85ACB312F
:1011700008F09ACFEC2FF0E0EE0FFF1FEF5BFE4F71
:10118000808191810E9467238FCF882309F44DC00D
:10119000823879F40E94EA2281FF47C089E30E94E5
:1011A00007100E94701089E30E940F100E947010B7
:1011B0000895833859F40E94EA2280FF36C083E5FF
:1011C0000E9407100E94701083E5EECF843859F416
:1011D0000E94EA2282FF29C087E40E9407100E9431
:1011E000701087E4E1CF9CEF980F913AE8F290E21B
:1011F000980F983050F4877091E001C0990F8A954C
:10120000EAF7892F0E943810D1CF9BE5980F9330D1
:1012100028F490E080E00E9442230895885A8B31A0
:1012200020F490E080E00E94672308951F93CF93FD
:10123000DF93182FEB010E943708209739F4812F94
:101240000E94C508DF91CF911F9108958FE99FE01B
:101250000197F1F700C000002197EFCF70E060E048
:10126000893311F460E570E00E941609089588231F
:1012700021F00E9432100E9470100895882321F0FE
:101280000E9438100E9470100895B0E0A0E0EBE4D6
:10129000F9E00C94272D6C01D62FC72FFC01128189
:1012A000058102950F700E942810E82E8823E9F02E
:1012B000E12E1123D1F08C2F807F803451F080E219
:1012C0008D0F8830F8F0011104C08C2F807E8032A1
:1012D000C9F08091660382FF15C082E00E94D3109E
:1012E0000E94281091E0E82EE926BC2EB2949FE0DF
:1012F000B922FBE0FB15B8F1EB2DF0E0E155F24D22
:101300000C94112DE12CF1CF0C2F0F70C07F11F038
:101310000295007F112399F0002359F080E28D0F90
:10132000883010F0D11107C0802F0E9432100E9427
:1013300070108D2F63C0802F0E944210F8CF8D2F28
:101340000E94C508002379F080E28D0F883010F0EC
:10135000D11104C0802F0E94381003C0802F0E943A
:1013600048100E9470102B2D2850330B243031056B
:1013700020F40E94EA220E94AF07EE2089F00E942A
:10138000241080FD0DC0F60112820E941E100E94E2
:101390000C0CC6010E94520B0E941E100E94180CD9
:1013A000CDB7DEB7E9E00C94432D2C2F2F70F22E31
:1013B000C07FC03219F0F29480EFF822DD2381F073
:1013C000D13009F449C0112309F451C0002309F4B4
:1013D00048C0F601858180FFACCF8F70858341C006
:1013E0008091660382FD15C0112359F0FF2029F07A
:1013F0008F2D0E9432100E94701080E00E943708EA
:10140000B2CF80E00E94C508FF2009F4ACCF8F2D39
:10141000A2CF112381F0011106C00E9452108F2922
:101420000E943709A0CF0130C1F70E9452108F29C6
:101430000E94591098CF011106C00E9466108F2D8E
:101440000E943E0990CF013009F48DCF8F2D0E946C
:101450003E090E94661087CF112329F0063008F05C
:1014600082CF8F2DDDCF053008F07DCFE8CF002370
:1014700031F3D93349F4FFEF27EE33E0F150204048
:101480003040E1F700C000008D2F0E94C5086BCFEF
:101490008C2F86958695837069F0813009F063CF33
:1014A0008D2F9C2F9370111102C080E090E00E945C
:1014B000672359CF8D2F9C2F9370111102C080E0AC
:1014C00090E00E9442234FCF8C2F837079F5111149
:1014D0004ACF4D2F429546954770440F440F8D2FAC
:1014E0008F70042E01C0880F0A94EAF72D2F207107
:1014F000D4FF07C02FE030E001C0220F4A95EAF781
:101500002095C695C695C370822BC23049F058F419
:10151000C13019F00E94E80B26CF0E94E20B23CFC6
:101520000E94EE0B20CF0E94DF0B1DCF869511236A
:1015300011F08C2F8170882309F415CF4D2F42951F
:1015400046954770440F440F8D2F8F70042E01C0B5
:10155000880F0A94EAF72D2F2071D4FF07C02FE0DF
:1015600030E001C0220F4A95EAF72095C695C6954E
:10157000C370822BC23049F058F4C13019F00E9478
:10158000370CF1CE0E94310CEECE0E943D0CEBCE1A
:101590000E94FA0BE8CECF70112329F08C2F0E9405
:1015A0000C0C8D2F3DCF8D2F0E943E098C2F0E9459
:1015B000180CD9CED23F41F160F4D03FB9F0D13F01
:1015C00081F0112309F446C00111B3CE8C2F8F7125
:1015D0001FC0D33F01F1D43FA1F78091660382FD84
:1015E00024C08C2F8F71112311F312C0112341F0ED
:1015F000053008F0B8CE8C2F8F710E94250CB3CE29
:10160000063008F0B0CEF7CF8C2F8F711111CFCFED
:101610000E940C0CA8CE112329F08C2F8F710E94F0
:10162000030CA1CE0E94FF0B9ECE112349F0CF7177
:101630008C2F0E940C0C63E08C2F0E94B51093CE6F
:1016400081E00E94D310023008F48DCE82E00E9427
:10165000D31089CE002359F0D93309F015CF8FEF7D
:1016600097EEE3E081509040E040E1F70BCF8C2F04
:101670008F719DCF0F931F93CF93DF93EC01688100
:1016800079818A810E94F30C8C010E94430C0E9494
:10169000DE0BB801CE010E944509DF91CF911F9169
:1016A0000F910895CF93DF93EC018B819C81892B5F
:1016B00029F08881998189238F3F51F4DF91CF915F
:1016C0000895CE010E943A0BCE010E94E006F6CFAB
:1016D000CE010E9405078111F4CF0E9428108823B3
:1016E00069F38A81882351F38091660382FFE6CFF4
:1016F00082E00E94D310E2CF90E080E00E9442237B
:1017000090E080E00E9467230E944F100E947010BA
:1017100008950E9417100E947C0B08950E943F10AC
:101720000E94890B089592959F70963091F058F41D
:10173000925F9F70923058F4803F19F030F4883EE9
:1017400030F481E008959A5FF4CF843FD1F380E0D4
:101750000895883EB0F3813FD1F7F3CFFC01838138
:101760009481892B29F08081918189238F3F11F405
:1017700080E00895808191810E94E80C0E94930B83
:101780000895A5E0B0E0E7ECFBE00C942E2D259643
:10179000E2E00C944A2DA6E0B0E0E1EDFBE00C9411
:1017A0002E2D2696E2E00C944A2D08950E94D50B2A
:1017B00008950E94D60B8093C102089508950E9457
:1017C000D90B08959091C102892B0E94D90B0895DD
:1017D0009091C10289230E94D90B08959091C10272
:1017E00089270E94D90B08950E94D50B08950E9465
:1017F000F40B08950E94F70B8093C002089580E0D7
:101800000E94FA0B089591E001C0990F8A95EAF7BA
:10181000892F0E94FA0B089521E030E001C0220FC9
:101820008A95EAF78091C002822B0E94FA0B0895F4
:1018300021E030E001C0220F8A95EAF720958091DF
:10184000C00282230E94FA0B089521E030E001C01B
:10185000220F8A95EAF78091C00282270E94FA0B34
:1018600008959091C002892B0E94FA0B08959091DF
:10187000C00289230E94FA0B08959091C002892723
:101880000E94FA0B08950895262F277091E001C059
:10189000990F2A95EAF723E0769567952A95E1F75F
:1018A000FB01EE0FFF1FE60FF71FE40FF51F50E0DF
:1018B00040E0682F70E08191DF0111979B01042EB9
:1018C00002C0369527950A94E2F7217021952827C2
:1018D000292328272C934F5F5F4F4330510559F739
:1018E0000895A82FA77023E0969587952A95E1F78C
:1018F000FC01EE0FFF1FE80FF91FE60FF71F50E086
:1019000040E080E0219130E00A2E02C03695279514
:101910000A94E2F721703327042E01C0220F0A94A3
:10192000EAF7822B4F5F5F4F4330510559F7089517
:10193000262F9A3068F4883058F438E0939FB0012D
:101940001124680F711D42EA52E0822F0E94440C5C
:1019500008959A3070F4883060F448E0949F9001C4
:10196000112462EA72E0820F932F911D0E94710C84
:10197000089580E00895CF92DF92FF920F931F9316
:10198000CF93DF936C010091C0028091C102082BBC
:10199000C4E0D0E010E0FC2EC8010C2E02C09595EA
:1019A00087950A94E2F780FD0CC02197A0F7F12CEF
:1019B0008F2DDF91CF911F910F91FF90DF90CF90EE
:1019C0000895B6018C2F0E94D013019771F3F0CFC8
:1019D000CF93DF93EC010E94BB0CBE010E94D01399
:1019E000DF91CF9108951F93CF93DF93EB019091F7
:1019F000A102992339F0CB010E94E80CDF91CF912D
:101A00001F910895882369F0CB010E94BB0C182F09
:101A1000682FCE010E94980CBE01812F0E94D01326
:101A2000EDCFCB010E94A90C182FF6CFE1E0F0E03A
:101A3000DF0102C0AA0FBB1F6A95E2F7BD01DF01FB
:101A400002C0AA0FBB1F4A95E2F76A2B01C0EE0F36
:101A50002A95EAF7962F9823961302C08E2B0895A5
:101A6000E0958E230895242F462F682F8091C00281
:101A70000E94160D0E94FA0B08951F93CF93DF93D7
:101A8000C091C20216E08091C3028C1304C0DF91A2
:101A9000CF911F910895D0E01C9FF0011D9FF00D84
:101AA0001124EC53FD4F4081518162817381848107
:101AB00095810E94CB0B2196C770E5CF4091F4022F
:101AC0005091F5026091F6027091F7028091F80250
:101AD0009091F9020E94CB0B08952091C20290913F
:101AE000C30256E0291302C080E0089530E0529FFF
:101AF000F001539FF00D1124EC53FD4F71817613CB
:101B000006C07081781303C07281741304C02F5F04
:101B10003F4F2770E7CF81E008951F93CF93DF9366
:101B20008091F902807F09F04BC08091F6028823F2
:101B300009F446C08091C202C091C3024091F402F0
:101B40005091F5026091F7027091F802D42FD523DD
:101B500016E0C817A9F190E061157105A9F1DF3F02
:101B600099F1189FF001199FF00D1124DF01AC537A
:101B7000BD4F11962C911197251326C02C9124133B
:101B800023C012962C91129721111EC013962D91ED
:101B90003C91261B370B283C3105B0F48091F902AB
:101BA0008F7080618093F902E753FD4F80818F70C1
:101BB0008061808384EF92E00E94520B0E943D0D71
:101BC000DF91CF911F91089501968770C2CFA1E157
:101BD000B0E0EDEEFDE00C94242D8C0185E0F801E1
:101BE000DE011D9601900D928A95E1F7F801F280D1
:101BF00084EFA82E82E0B82E4091F7025091F802AF
:101C00004115510509F45AC19091F4022091F50251
:101C1000892F82238F3F09F451C1C080D1808380F6
:101C20009480E090F602B401641B750BEE2009F479
:101C3000F6C08091F902382F307F683C710508F0BA
:101C4000AFC031117AC0EF2C2D1116C09C1114C0F9
:101C5000F11012C08F7080618093F9020E945E0DB6
:101C6000C5010E94520B8091F902F80185838E2DE7
:101C70006196ECE00C94402D81149104C9F18C2DF7
:101C80008D218F3FA9F181E08F2580FF05C04F2D69
:101C90006D2D8C2D0E946D0D8114910459F18C2DA8
:101CA0008D218F3F39F181E08F25F82FF170BF2E04
:101CB00080FF39C04F2D6D2D8C2D0E946D0DA82EEB
:101CC000811131C0CD86DE868D859E850E94E80C0F
:101CD000292F22952F70243078F49F702230A8F09D
:101CE0009923B9F0F8019581907F99F4EA2CBFCF40
:101CF00080E0CBCF80E0D9CF2A5F2F70223068F010
:101D0000C8010E94520BAB2CF1CF992311F088230C
:101D100069F3805E883050F3F3CF803F38F3815F02
:101D2000833070F7E3CFFF2009F4A1CF8091F9024F
:101D300081608093F902E12C9ACF2D1105C09C118E
:101D400003C0FF2009F486C0C8010E94AE0B88239F
:101D500019F1FF2009F18091F902803270F0209191
:101D6000F4023091F50238872F8319869B868A8684
:101D70008C87CE0107960E94520B86E0F801A4EFF3
:101D8000B2E001900D928A95E1F70E948D0D0E94BC
:101D90005E0DEE24E3946BCFC8010E94520BF9CF85
:101DA000311114C0782D998A888AA6016F2D8989EE
:101DB0000E94C10B84EF92E00E94520B86E0F50175
:101DC00011928A95E9F70E945E0DB5CF2D110EC0D4
:101DD0009C110CC0F1100AC08583C8010E94520BEF
:101DE00086E0F50111928A95E9F741CFC8010E947A
:101DF000AE0B882389F2FF2079F28091F9028032BC
:101E000008F4BBCF2091F4023091F5023A83298384
:101E10001B829D828C828E83CE010196ACCF683C62
:101E2000710508F03DC0EF2CFF2009F4B5CF2D114E
:101E300029C09C1127C08091F90280FD1AC0982FFB
:101E4000907FB9F08583903F31F0982F907F905F1D
:101E50008F70892B8583C8010E94520B86E0F801A0
:101E6000A4EFB2E001900D928A95E1F70E945E0D19
:101E7000FECE86E0F801A4EFB2E001900D928A95C3
:101E8000E1F7F5CEC8010E94AE0B811176CF8091AB
:101E9000F90281608093F902C8010E94520BE7CEDB
:101EA000782D998A888AA6016F2D89890E94C10B95
:101EB00086E0F50111928A95E9F7D8CFFF2009F461
:101EC0006BCFC8010E94AE0BE82E882309F464CFC3
:101ED00086E0F801A4EFB2E001900D928A95E1F757
:101EE00084EF92E00E9431080E948D0DBFCFACE0DC
:101EF000B0E0EDE7FFE00C942D2D4F835887698704
:101F00007A878B879C87CE0107960E94E70D8823EE
:101F1000B1F08A859B85892B39F04F815885842FB4
:101F200085238F3F09F06CC016E08091C20290912A
:101F3000C302891343C02C96E3E00C94492D86E03C
:101F4000FE013796DE01119601900D928A95E1F718
:101F50008A859B85892B41F38F81988589238F3FC3
:101F600019F32091C30230E0C901019687709927C7
:101F70004091C2024817190671F40E948E0B10920C
:101F8000C3021092C20286E0E4EFF2E0DF011D928C
:101F90008A95E9F7C9CF96E0929FD001939FB00D43
:101FA0001124AC53BD4FFE01319601900D929A95CC
:101FB000E1F78093C3020E943D0DB6CF819FC0011F
:101FC00011248C539D4F0E94E70D882309F4B3CF51
:101FD000E091C2021E9FF0011124EC53FD4F40819D
:101FE000518162817381848195810E94CB0B8091A4
:101FF000C20290E00196877099278093C20295CF24
:1020000069857A858B859C850E94CB0B8DCF682F47
:1020100080910001909101010E94D4230895682FBE
:1020200080910001909101010E94D7230895809131
:102030000001909101010E94DA230895809102032A
:1020400085958595859508958091020387700895FB
:1020500090910203977081E009F480E008958091E7
:102060000D03089590910D03892B80930D0308951E
:10207000809590910D03982390930D0308951092ED
:102080000D03089590910C03892B80930C03089500
:10209000809590910C03982390930C0308951092CF
:1020A0000C03089580910303089508950E9455102C
:1020B00008959091660392FF08C0909103039817CA
:1020C00021F0809303030E9456100895809103032A
:1020D000882329F01092030380E00E94561008958F
:1020E000CF93DF93E0910001F091010180910D0306
:1020F0008083E0910001F0910101808190910C03B7
:10210000892B808390910303992381F0E091000152
:10211000F09101018081892B808380910001909151
:1021200001010E948C2381110E946610C091000160
:10213000D091010148E050E06AEF72E0CE010E94C8
:10214000552D892B59F088E0FE01AAEFB2E00190ED
:102150000D928A95E1F7CE010E94FE22DF91CF9188
:10216000089508950E94B11008959091660392FF1A
:1021700011C098E0899F90011124622B60930203A3
:102180000E940C0C809102038595859585950E948F
:10219000B21008950E940C0C08951092020380E082
:1021A0000E94B21008959091020380958923809334
:1021B0000203282F277091F4282F082E000C330BD0
:1021C0009217130659F09091660392FF07C0859508
:1021D000859585950E94180C0E94CD100895CF9387
:1021E000C82F8091660382FB992790F99C17E9F02C
:1021F000C0FB82F98093660380916503909166032A
:102200000E944B1182E00E94D3108091220380FF34
:102210000CC01F92CF9381E094E09F938F930E9414
:1022200071060F900F900F900F90CF9108958091AD
:10223000660382FB882780F991E089270E94EF10CE
:10224000089581E00E94EF10089580E00E94EF1051
:1022500008956FEF7FEF90E080E00E94972D089542
:1022600090E080E00E94732D873E9E4F19F40E94FB
:102270009119089580E0089582E090E00E946B2D0E
:10228000089583E090E00E946B2D089584E090E033
:102290000E94732D0895BC0184E090E00E94972D68
:1022A0000895AB01BC018FE090E00E948B2D089552
:1022B000AB01BC0183E190E00E948B2D089560E0AA
:1022C00070E0CB010E945811089560E070E0CB01EE
:1022D0000E9451110E945F11089567EE7EEF90E019
:1022E00080E00E94972D60E082E090E00E94792DCE
:1022F00060E083E090E00E94792D1092C10260E0DE
:1023000074E184E090E00E94972D60E086E090E028
:102310000E94792D6FEF87E090E00E94792D40E0D8
:1023200050E0BA0188E090E00E948B2D60E08DE0E3
:1023300090E00E94792D40E050E0BA0188E190E001
:102340000E948B2D60E087E190E00E94792D40E0B3
:1023500050E0BA018CE190E00E948B2D70E060E0CB
:1023600080E290E00E94972D40E050E0BA0188E1C1
:1023700090E00E948B2D80E00E94AA190E94D9193A
:102380000E94651108950E946D110895682F8EE0D6
:1023900090E00E94792D0895A5E0B0E0E2EDF1E132
:1023A0000C942C2D0E9486248C0180910E03909118
:1023B0000F0380179107A1F08FEF89838A831B8217
:1023C0000E9486248160782F9D838C8349815A8165
:1023D0006B818D810E94FC0710930F0300930E0305
:1023E0002596E4E00C94482D0E94922460931E03ED
:1023F00070931F03809320039093210360931A032B
:1024000070931B0380931C0390931D0308950895FC
:1024100008950E940812089508950E940C120895CC
:1024200081E0089585EC96E20E94E0220E94071266
:102430000E94091208950E944F1708950895089563
:102440000E941E120E941F1208950E9414150E94DD
:10245000AE0708950E947D240E94BA140E94E919D3
:102460000E9467170E9474160E9425120E94DE1AAD
:102470000E9479170E940D120895A5E0B0E0E3E4F0
:10248000F2E10C94262D0E94101281110AC00E94C4
:10249000CC110E944F170E94C1072596EAE00C94C8
:1024A000422D0E94CE1680E1A82E83E0B82E750141
:1024B00010E0F70101917F01812F0E9435151F5F08
:1024C0001A3009F440C00817A1F38091220381FD5E
:1024D0000E943B150E941B12C82E10E0812F0E9403
:1024E0003515082FF50181915F01081731F1D02EC4
:1024F000D826F12CEE24E3948D2D8E21B1F0CC2042
:10250000A1F0F9821A8391E0802F8E2109F490E0E6
:102510009B830E9486248160782F9D838C834981D0
:102520005A816B818D810E94FC07F394EE0CF8E0D8
:10253000FF12E2CFF501319700831F5F1A3071F669
:102540000E94F411A6CF0813C0CFA1CF1F93CF9341
:10255000DF930E94D513EC01C11580E5D807F0F593
:10256000C11580E4D80708F09CC0C03ED10520F515
:10257000CD3CD10508F082C0C83AD10578F4C53AFF
:10258000D10508F073C0C130D10519F1209709F1C8
:10259000C430D105F0F4D0E0C0E01BC0C13CD1058F
:1025A000D0F7C85AD0E0CC0FDD1FC658DE4F0990D7
:1025B000D881C02DD4640DC0C11580E2D80708F0C1
:1025C000D1C0C11581E0D80708F05AC0C83ED10576
:1025D00010F7CE01DF91CF911F910895C03682E5AB
:1025E000D80718F5C03482E5D80708F06BC0C032B0
:1025F00082E5D80708F05FC0C11582E5D80708F466
:1026000097C02C2F2695269580E2289F90011124B3
:102610008C2F8370C1E0D0E002C0CC0FDD1F8A9503
:10262000E2F7C22BD32BDD68D4CFC03A82E5D807BE
:1026300060F4C03882E5D80708F459C0CF71D0E003
:10264000DC2FCC27C46FD06AC4CFC03C82E5D8074A
:1026500008F462C0C03E82E5D80708F09CCFDC2FAA
:10266000CC27CC27DF71C06FD06AB3CFC55AD0E07A
:10267000C055DE4FC881D0E0D064ABCFD065A9CFC4
:102680008D2F0E947714182FCE0199270E94D51301
:10269000C12FD0E0DC2FCC27CC27DF71C82BD92B62
:1026A00098CFCE0199270E94D513CC27DF70C82B75
:1026B000D92BD06A8ECFCF71D0E0DC2FCC27C16F61
:1026C000D06A87CF2C2F26952695277080E2289FE9
:1026D000900111248C2F8370C1E0D0E002C0CC0F98
:1026E000DD1F8A95E2F7C22BD32BDC6872CF2C2F2B
:1026F00026952695277080E2289F900111248C2F23
:102700008370C1E0D0E002C0CC0FDD1F8A95E2F7F4
:10271000C22BD32BDA685DCF8C2F8F710E94771478
:10272000C82FD0E0DC2FCC27CC27DF71D06251CF6F
:102730008C2F8F710E94771455E0D695C7955A95C6
:10274000E1F7CF70D0E0DC2FCC27282F30E084FFDA
:1027500005C044E0220F331F4A95E1F7C22BD32B6B
:10276000D06937CF8D2F8F710E947714182FCE012B
:1027700099270E94D513C12FD0E0DC2FCC27CC277E
:10278000DF71C82BD92BD2CF462F7A3030F4683086
:1027900020F4672F0E94231F089590E080E00895A1
:1027A0000E94C4130E94A612089582389105B9F1BF
:1027B000B0F48133910509F47DC048F48932910564
:1027C00009F46DC08A32910509F47BC00895853300
:1027D000910509F45FC08933910509F10895833E9D
:1027E0009105D9F138F4803E910529F1823E910599
:1027F00079F10895863E9105D9F1873E910509F456
:102800003EC0843E910541F52091660321FF24C01E
:102810008091650384FD19C087EE90E008952091B2
:102820006503237009F05AC02091660323FF14C08A
:1028300089E290E008952091650320FD38C0309131
:10284000660330FF09C024FF43C090E080E0089594
:102850002091650322FDF7CF08952091650322FDA5
:102860003AC03091660330FD39C024FFF5CFEDCF7B
:102870002091650323FFF0CF24FDE7CFCDCF20913A
:10288000650323FD2EC03091660331FFEECF84EE49
:1028900090E008952091650325FFDECFC9CF2091F8
:1028A000650325FD21C02091660323FFD5CF89E371
:1028B00090E0D2CF2091650326FFCECF8AE290E050
:1028C00008952091650326FFC7CF81E390E0089526
:1028D00083EE90E0089582EE90E0089580EE90E01F
:1028E000089586EE90E0089585E390E00895909134
:1028F000650392FF06C0282F28712830F9F4877FDE
:10290000846093FF06C0282F28712831F1F4877E58
:1029100084612091660320FF06C0382F387138305B
:10292000D9F4877F816021FF06C0282F28712831C4
:10293000D1F4877E816194FD877E0895282F2471CC
:102940002430F9F68B7F8860DCCF282F2471243166
:1029500001F78B7E8861DDCF382F3171313019F767
:102960008E7F8860E0CF282F2171213121F78E7E64
:102970008861E1CF109261031092620310926303A9
:10298000109264030895CF92DF92EF92FF926B0151
:102990007C010E944F1781110EC00E949224C61A1A
:1029A000D70AE80AF90AC0926103D0926203E09262
:1029B0006303F0926403FF90EF90DF90CF9008954F
:1029C0000F931F930E944F17882329F00E9492248F
:1029D0001F910F9108950E9492240091610310911C
:1029E00062032091630330916403600F711F821FA3
:1029F000931FEECF0E94291108950E94CE168FE3F7
:102A00009CE90197F1F700C000000E94CE1680E01B
:102A10000E94351580FF04C00E94FA140E94ED2424
:102A200008950E94FD1408950E943011811102C082
:102A30000E94C3110E943C11809322030E94461100
:102A400090936603809365030E9411150E944111C3
:102A50000E94DF0B8091C0020E94F70B08950E9434
:102A60007C0608950E947D060895E82FF0E0EE5858
:102A7000FC4F80810895B0E0A0E0E1E4F5E10C9422
:102A8000282D85E294E00E94D80582E7E82E83E0B5
:102A9000F82ED0E0C0E090E2C92E94E0D92E08E1F3
:102AA00014E0DF93CF93DF92CF920E9471068DE105
:102AB00094E00E94D805F70181917F010E9484076C
:102AC0001F928F931F930F930E94710686E194E0EB
:102AD0000E94D80521968DB79EB708960FB6F89438
:102AE0009EBF0FBE8DBFCA30D105D9F6CDB7DEB7B8
:102AF000E8E00C94442D80EA8A95F1F7089500C02F
:102B000008950E947B15089508950E9484150895E4
:102B1000A5E0B0E0EEE8F5E10C942A2D0E944F17F5
:102B2000F82E60917C03882309F440C085E0E82EEC
:102B30008E010F5F1F4FF8018E2D11928A95E9F7D4
:102B4000862F90E0B8018E589C4F0E9487178823EB
:102B5000B9F08091670390E045E050E0B8018E58ED
:102B60009C4F0E94552D21E020932303892B91F443
:102B7000F12C0E9432158F2D2596E6E00C94462DFF
:102B8000809123038823A1F3F8011192EA94E9F7D5
:102B900010922303A0916703B0E0AE58BC4F85E0CC
:102BA000F80101900D928A95E1F7E3CF70E06E583D
:102BB0007C4F8091670390E08E589C4F0E942218B2
:102BC0000E948515D8CFF894E82FE295EF70F0E0D9
:102BD00031A1282F2F7081E090E001C0880F2A9545
:102BE000EAF7982F9095932391A392A1892B82A322
:102BF00078940895CF93DF93CAE0D1E089918F3F15
:102C000011F00E94E31581E0CF30D807B9F7C2E098
:102C1000D1E089918F3F11F00E94E31581E0CA3025
:102C2000D807B9F7DF91CF910895B0E0A0E0EBE1CC
:102C3000F6E10C94282DEC01D62E062F10E0C801E9
:102C4000865F9E4F7C01FC0180818F3F09F445C067
:102C5000F894E82FE295EF70F0E091A18F7021E0F9
:102C600030E001C0220F8A95EAF7892F822B81A3D9
:102C700082A12095282322A378940E947F15E2E068
:102C8000F1E04AE051E031E0C12C21912F3F51F1B8
:102C9000A22FA295AF70B0E090968C9190E02F702B
:102CA00002C0959587952A95E2F780FD1BC0832F7A
:102CB000C82A330F4E175F0741F7F70180818F3F16
:102CC00011F00E94E31561E0C11001C060E08D2D9C
:102CD0000E948115C00FD11FC882CDB7DEB7E8E0D2
:102CE0000C94442D80E0E4CFADE0B0E0EAE7F6E1FB
:102CF0000C942E2D80910F0181112CC085E0E4E30E
:102D0000F1E0DE01199601900D928A95E1F789852F
:102D100080930A018A8580930B018B8580930C0137
:102D20008C8580930D018D8580930E0188E0E9E309
:102D3000F1E0DE01119601900D928A95E1F7FE0116
:102D40003196A2E0B1E0CE01099621912D93E817CA
:102D5000F907D9F780910F0195E0811190E09093E8
:102D60007C0385E0891B809367030E94FA158AE043
:102D7000E2E7F3E0DF01982F1D929A95E9F7E8E684
:102D8000F3E0DF011D928A95E9F785E00E940C17B8
:102D90000E942F152D96E2E00C944A2DAAE0B0E097
:102DA000E4EDF6E10C942B2D8E010F5F1F4F8AE0AE
:102DB000F80111928A95E9F7F12C6F2DC8010E9454
:102DC0001516F394F5E0FF12F8CF4AE050E0B80191
:102DD00088E693E00E94552D21E0009709F420E059
:102DE000892B41F08AE0F801A8E6B3E001900D924A
:102DF0008A95E1F760917C0370E06E587C4F45E066
:102E000088E693E00E940D17182F0E948815812BE9
:102E10002A96E5E00C94472D0895CF92DF92EF9229
:102E2000FF920F931F93CF936C017B01042F2223FA
:102E300049F081E0809326030E9486249093250325
:102E400080932403C0912603C1110AC0C0E08C2FD7
:102E5000CF911F910F91FF90EF90DF90CF90089549
:102E600080912403909125030E949E24059770F37E
:102E700010E0A801B601C7010E94552D892B41F031
:102E8000A801B601C7010E94622D10922603DFCF70
:102E9000C0E0FBCF8CB186FB882780F90895809134
:102EA0002903811107C00E94F82C882351F081E08A
:102EB0008093290381E090912903913009F080E00B
:102EC000089582E0809329030E94F32CF3CF6E983B
:102ED00076988FE891E00197F1F700C000000E941A
:102EE0004A1780930F010E944F1781110E94D1173A
:102EF00008950E944F17811102C00E94D4170895AF
:102F000081E090912A039A3008F080E00895EF92D2
:102F1000FF920F931F93CF93DF938C017B01D0918E
:102F20002A03DA30D0F4B701C8010E941F18C82F55
:102F300081112AC080912A038F3FF9F40E948624D0
:102F400090932803809327038091220380FF0EC073
:102F500087E494E00E94D8050AC0809127039091ED
:102F600028030E949E24843F9140E8F6C0E08C2F05
:102F7000CDB7DEB7E6E00C94462D8F5F80932A0331
:102F80008A30E0F6C1E0F3CFDA3040F080912203DE
:102F900080FF04C084E394E00E94D80510922A03C5
:102FA000E6CF0E947E2108950E9481210895B0E01D
:102FB000A0E0EDEDF7E10C94292D7901C82F880FE1
:102FC000DD0B41155105A9F0FE0193E0EE0FFF1F47
:102FD0009A95E1F7E05FFE4F81819281855D9C4F7C
:102FE000208130E04217530708F49A01A9010E949A
:102FF000622DCE010E946A22D82E8823D1F00115BD
:103000001105B9F083E0CC0FDD1F8A95E1F7FE01D1
:10301000E05FFE4F438150E00417150708F4A80154
:10302000C05FDE4F6C817D81655D7C4FC7010E9472
:10303000622D8D2DCDB7DEB7E7E00C94452D0E94B3
:10304000251908950E9440190895A4E0B0E0EBE22C
:10305000F8E10C942C2D6091420370914303809110
:103060004403909145030E94AD2411E0643671053C
:103070008105910518F10E94E0146E5F7F4F8F4F1C
:103080009F4F69837A838B839C8310E000E030E05C
:1030900020E044E050E0BE016F5F7F4F82E00E947D
:1030A000D717182F882351F00E949224609342036F
:1030B000709343038093440390934503812F249698
:1030C000E4E00C94482DB0E0A0E0E9E6F8E10C94CF
:1030D000232D7C015B01842E752E69010E948017CF
:1030E00001E010E0882311F00AE010E0C1E0D0E038
:1030F000B501C701F6010995982E811114C02196DA
:103100000C171D07B4F48091220380FF0CC07F923E
:103110008F928DE794E09F938F930E9471060F909A
:103120000F900F900F90892DCDB7DEB7EDE00C9486
:103130003F2DCC9F9001CD9F300D300D112490E09C
:1031400080E045E34A95F1F700000196281739071A
:10315000C1F7CECFA6E0B0E0E0EBF8E10C94262D6D
:103160007B01C090B301D090B40101E010E09E015A
:103170002A5F3F4F50E040E070E060E080E00E9456
:10318000D717182F882309F448C056018FEFA81AC3
:10319000B80A60913E0370913F0380914003909183
:1031A00041030E94AD24643671058105910568F1E3
:1031B00005E010E09E012F5F3F4F50E040E070E0DF
:1031C00060E081E00E94D717D82E65E070E0C5016D
:1031D0000E94DF1A11E09E81981310E01D2141F139
:1031E0000E94922460933E0370933F0380934003B8
:1031F0009093410385E0FE013196A9E3B3E001908D
:103200000D928A95E1F711E013C065E070E0C50109
:103210000E94DF1A9E818913CBCF85E0F60131969B
:10322000DE01119601900D928A95E1F71111E2CF1E
:1032300085E0E9E3F3E0D70101900D928A95E1F78B
:10324000812F2696EAE00C94422D0F931F93CF9383
:10325000DF93EC018B012AEA38E145EB51E00E9453
:103260006318882341F025E238E142EC51E0B801CF
:10327000CE010E946318DF91CF911F910F910895A5
:103280000F931F93CF93DF93C091B301D091B401FB
:10329000CE01019625E0FB01DC0101900D922A95FB
:1032A000E1F765E070E00E94DF1A88836E817F811C
:1032B0008885998500913503109136032091370355
:1032C00030913803601771078207930751F06093BC
:1032D00035037093360380933703909338030E942D
:1032E000C314DF91CF911F910F9108950E94412740
:1032F0000E942A120E944E2708950E9453270E947E
:103300003D120E947A2708950E941F240E942727B9
:103310000E9412120E9476190E947D190E942012AA
:10332000FBCF82E290E00E946B2D833289F483E22E
:1033300090E00E946B2D843059F484E290E00E946A
:103340006B2D91E0833109F090E0892F8170089511
:1033500080E0FCCFCF93C82F6FEF811163E282E250
:1033600090E00E94792D6FEFC11164E083E290E05C
:103370000E94792D6FEFC11163E184E290E00E9419
:10338000792DCF910895089585E290E00E946B2DEC
:10339000682F70E090E080E008950895CF93C62FE5
:1033A0000E94CD196C2F85E290E00E94792DCF917B
:1033B000089580E00E94AA1960E070E0CB010E94AD
:1033C000CE190E94AF1E0E947C1F81E00E94AA19A4
:1033D00008950E94C3190E94C4190E94CD190E9429
:1033E0009119811102C00E94D919089508959C0174
:1033F000FB018281882351F0A901575740385105BC
:1034000030F4822F0E948C1F80E0089581E008959F
:103410002FEFFC01208308950E94081A089580E090
:103420000895B0E0A0E0E7E1FAE10C94282DEC016A
:10343000E62E0E940F1A811110C0E881E150E3319D
:10344000B8F4F0E0E554F24D0C94112D19828CE0A3
:103450008A836E2DCE010E945F25CDB7DEB7E8E0EE
:103460000C94442D89818230C1F028F4813061F0C0
:103470008FEF8883EECF833099F08430C9F71A82BA
:103480001B821C821D82E5CF0E9492240E94172D70
:103490006A837B838C839D83DCCF0E94C419F6CF23
:1034A0008A81082F10E06E0193E0C90ED11C9CE1C7
:1034B000F92EF80E0A30110560F6802F0E9435159E
:1034C000F60181936F010F5F1F4FF012F3CFC1CF51
:1034D0008981823031F0853059F68A810E94F6194F
:1034E000B8CF6A817B818C819D810E94172D0E94BB
:1034F000CE19AFCF4B816A8189810E94711E9827B6
:10350000892798279D838C83A4CF2C813D813227E6
:10351000232732274B816A8189810E94931E99CF8C
:103520000E94AF1E96CF6E2DCE010E940C1A91CF35
:103530000E942F1F89838DCF0E94311F98278927D2
:1035400098279A83898385CF6B8170E089819A81DE
:10355000AE014C5F5F4F9827892798270E94341F40
:1035600078CF6B8170E089819A81AE014C5F5F4FAB
:103570009827892798270E94581F6BCF0E947C1F8D
:1035800068CF0E945E1ED6CF6B8170E089819A81E0
:10359000AE014C5F5F4F9827892798270E94DB1E5A
:1035A00058CF6B8170E089819A81AE014C5F5F4F8B
:1035B0009827892798270E94FF1E4BCF0895FC016A
:1035C000680F791F8FEF91E36E177F0709F4089555
:1035D0002191822728E030E087FF06C0880F8927E5
:1035E00021503109C9F7F0CF880FFACFCF93DF937D
:1035F000EC01FB018281882309F4D2C09E0130577F
:103600002332310508F0B2C00E9446119093660340
:1036100080936503FE01E150F047E232F10520F4AA
:10362000E253F24D0C94112D8091650381608093DB
:10363000650393C0809166038860809366038DC0A4
:10364000809165038260F3CF809165038460EFCF42
:10365000809165038860EBCF809166038160EDCF38
:10366000809166038260E9CF809165038061DFCF3E
:10367000809165038062DBCF809165038064D7CF42
:103680000E948E0B809165038068D1CF8091650385
:103690008C60CDCF809166038360CFCF809165032E
:1036A0008E7FC5CF80916603877FC7CF80916503EA
:1036B0008D7FBDCF809165038B7FB9CF80916503EE
:1036C000877FB5CF809166038E7FB7CF80916603E9
:1036D0008D7FB3CF809165038F7EA9CF80916503E5
:1036E0008F7DA5CF809165038F7BA1CF0E948E0B2C
:1036F000809165038F779BCF80916503837F97CF00
:10370000809166038C7F99CF8091650382FB992716
:1037100090F921E0922790FB82F990FB83F987CF03
:1037200080916603982F909591708E7F892B90FBE6
:1037300081F983CF90916503892F8F7B96FF8064F9
:1037400076CF0E948E0B90916503892F97FB87F9A6
:1037500080586DCF81E00E94C611809165039091E1
:1037600066030E944B110E948E0B80E0DF91CF9187
:10377000089580E0F0CF90916503892F8F7E94FFAC
:10378000806155CF90916503892F8E7F90FF816076
:103790004ECF90916603892F877F93FF88604DCF2E
:1037A00081E0E4CFB0E0A0E0E8EDFBE10C94292D4E
:1037B000E82FF0E0ED56FB4FD490282F2695269564
:1037C000269530E0F901ED5CFA4F0491877010E026
:1037D000082E02C0159507950A94E2F7017011278B
:1037E000F901ED5DFA4FE490F12C082E02C0F5943A
:1037F000E7940A94E2F791E0E922FF24F901ED5EF3
:10380000FA4FC491D0E002C0D595C7958A95E2F7EA
:10381000C170DD270115110519F081EE0E943708EE
:10382000E114F10419F086EE0E9437088D2D0E94F4
:103830002E09E114F10419F086EE0E94C508011565
:10384000110519F081EE0E94C508CD2B19F08CE20C
:103850000E942E09CDB7DEB7E7E00C94452DEF921C
:10386000FF920F931F93CF93DF93EC01162F0AE083
:103870008881882309F454C0813009F04EC08981C1
:10388000813099F47E0122E0E20EF11C8A810E94CF
:103890002E09E7012196812F815050F3EFE9FFE0D7
:1038A0003197F1F700C00000F7CF823041F47E017C
:1038B00082E0E80EF11C8A810E943708EACF83304B
:1038C00041F47E01E2E0EE0EF11C8A810E94C508FF
:1038D000E0CF843011F02196DDCF2A81229690E04E
:1038E00080E0AE014F5F5F4F2053330B2A3031052C
:1038F00048F0019778F2EFE9FFE03197F1F700C067
:103900000000F7CF089FB001099F700D1124C90175
:10391000860F971F2981EA01E4CF0E94D21BBACFFC
:10392000CDB7DEB7E6E00C94462DCF93C82F1F929B
:103930008F9389E495E09F938F930E94710681E0B5
:1039400001C0880FCA95EAF70E94DF0B0E948E0B18
:103950000F900F900F900F90CF910895EF92FF92DC
:103960000F931F93CF93DF938B3109F410C108F0AD
:10397000B0C08B3009F4CCC008F082C0863009F4A6
:10398000DAC048F4853009F4B2C082EE98E00E94B3
:10399000D80580E0E0C0873009F4E2C08830A9F79C
:1039A0000E9441111F928F9385EC98E09F938F9313
:1039B0000E9471060E943C1183FB992790F91F9287
:1039C0009F9382FB992790F91F929F9381FB9927E0
:1039D00090F91F929F93982F91701F929F931F921F
:1039E0008F938CE798E09F938F930E9471060E94BB
:1039F000461193FB222720F91F922F9387FB222742
:103A000020F91F922F9386FB222720F91F922F93D4
:103A100085FB222720F91F922F9384FB222720F970
:103A20001F922F9383FB222720F91F922F9382FB53
:103A3000222720F91F922F9391FB222720F91F9212
:103A40002F93292F21701F922F9381FB222720F97A
:103A50001F922F93282F21701F922F939F938F9344
:103A60008DE797E09F938F930E9471068DB79EB765
:103A70008A960FB6F8949EBF0FBE8DBF81E06BC0D3
:103A8000803109F49CC080F48E3009F07ECF909193
:103A90002203892F8B7F92FF84608093220382FF11
:103AA0008BC08DE099E07FC0863109F498C08931E0
:103AB00009F06BCF8DEC91E09F938F9389EB95E0AC
:103AC0009F938F930E9471060F900F900F900F900D
:103AD000D5CF8A3249F190F4873211F128F48E3132
:103AE00008F453CF8D511DC0893209F04ECF80E5C7
:103AF00099E00E94D8050E94FB06C0CF833468F489
:103B00008A3308F091C0853359F0883309F03DCFEE
:103B100087ED95E00E94D805B1CF833409F035CF09
:103B200080E00E94951CAACF80E799E00E94D8050A
:103B30000E94C311A3CF80912203807F8093220330
:103B40008CEB95E00E94D8058CE699E00E94D805A0
:103B500081E080934603CDB7DEB7E6E00C94462DB6
:103B600090912203892F8E7F90FF816080932203A2
:103B700080FF03C084E499E0CDCF87E399E00E9401
:103B8000D80580912203817F8093220377CF909183
:103B90002203892F8D7F91FF82608093220381FF12
:103BA00008C08AE299E00E94D805809122038160D2
:103BB000EBCF8CE199E0AECF8DEF98E0ABCF909159
:103BC0002203892F877F93FF88608093220383FFDE
:103BD00003C081EF98E0E7CF84EE98E09BCF0E948E
:103BE0009224162F072FF82EE92ED0916003C09152
:103BF00033010E94EA22EF92FF920F931F931F92CC
:103C0000DF931F92CF931F928F938EE495E09F9343
:103C10008F930E9471068DB79EB70C960FB6F894DD
:103C20009EBF0FBE8DBF2ACF89537BCF80E0089502
:103C30000E94161E0895CF93C82F809146038823B3
:103C400031F0813099F01092460380E00DC00E945F
:103C50002F108232D1F78C2F0E94161E811119C0AD
:103C60008C2F0E94AE1C8170CF9108950E942F105E
:103C7000823289F38C2F0E94181E811119C0C43121
:103C8000C9F050F4CB3061F083E495E00E94D80590
:103C900013C081E090E0E7CFC93261F0C833A1F7EB
:103CA0008CEB95E00E94D80585E495E00E94D8054C
:103CB00081E0D9CF1092460380E0D5CF85E008950A
:103CC00090E1699FB001112450E0440F551F640F2B
:103CD000751F90EA899F600D711D1124CB01869696
:103CE00008950F931F93CF93DF938530C8F46A3004
:103CF000B8F44830A8F40E94601E8C010E946B2D1D
:103D0000C82FD0E0DC2FCC27C80101960E946B2D74
:103D10009E01282BC901DF91CF911F910F9108952A
:103D200090E080E0F8CF0F931F93CF93DF93122F93
:103D3000032F853078F46A3068F4483058F40E94D4
:103D4000601EEC01602F0E94792D612FCE0101963B
:103D50000E94792DDF91CF911F910F9108950F93BC
:103D60001F93CF93DF93D0E0C0E010E019C00E9412
:103D70007F0621E030E08C171D0639F034F0402F2B
:103D8000612F8C2F0E9481069C01402F612F8C2F68
:103D90000E94931E0F5F083051F71F5F1A3011F019
:103DA00000E0E5CF2196C530D105F9F6DF91CF913E
:103DB0001F910F910895EF92FF920F931F93CF934E
:103DC000DF93EC018A017C01E60EF71ECE01869698
:103DD000CE15DF0529F4CDB7DEB7E6E00C94462D0D
:103DE000C03223E0D20740F40E946B2DF80180839B
:103DF0000F5F1F4F2196EACFF8011082F9CFB0E094
:103E0000A0E0E5E0FFE10C94282D7C016A018C0123
:103E1000060F171FEC01CE018696C017D10729F4B3
:103E2000CDB7DEB7E8E00C94442DC03223E0D207D2
:103E300040F4FE01EE19FF09EC0DFD1D60810E94AA
:103E4000792D2196E8CF853038F46A3028F448304F
:103E500018F40E94711E089590E080E0089580E1BA
:103E600008958AEB90E00895EF92FF920F931F93CD
:103E7000CF93DF93EC018A017C01E60EF71ECE01A1
:103E80008A5B9C4FCE15DF0529F4CDB7DEB7E6E09F
:103E90000C94462DCA3BD10540F40E946B2DF801CD
:103EA00080830F5F1F4F2196EACFF8011082F9CF70
:103EB000B0E0A0E0EEE5FFE10C94282D7C016A0162
:103EC0008C01060F171FEC01CE018A5B9C4FC017B7
:103ED000D10729F4CDB7DEB7E8E00C94442DCA3BF6
:103EE000D10540F4FE01EE19FF09EC0DFD1D6081C6
:103EF0000E94792D2196E8CFCF93DF93C6E4D3E0DB
:103F000060E0CE010E94792D2196C11584E0D8078A
:103F1000B9F7DF91CF910895A8E0B0E0E2E9FFE1C1
:103F20000C94262DF82E8FE08F1508F46EC08FEFBD
:103F300093E00E946B2D811168C006E413E0F1103C
:103F400035C0FE0131966F0188E011928A95E9F73C
:103F50007801FFEFEF1AFF0AC8010E946B2D8983D9
:103F60001A82882309F451C08130D1F4580182E0CB
:103F7000A80EB11CC7010E946B2D8A83882309F407
:103F800044C09FEF980F9330F0F4780193E0E90E6E
:103F9000F11CC5010E946B2D8B838823B1F11C821B
:103FA00060E0C6010E942F1C8701D2CF011594E06A
:103FB000190759F1C8010E946B2D811101C0FA94B3
:103FC0000F5F1F4FBCCF7501843051F702E010E046
:103FD0007501EFEFEE1AFE0AC5010E946B2DF60186
:103FE000E00FF11F8083882381F08C3741F4E2E0F9
:103FF000F0E0EC0FFD1FE00FF11F1082D1CF0F5F3B
:104000001F4F57010730110519F72896EAE00C9465
:10401000422DCF93DF93EB0186319C4711F50E942F
:104020002F109A81992399F08A7A91E009F490E00F
:1040300090934703811109C089E20E9407100E94F2
:10404000701080E0DF91CF91089585E3F6CF8091E5
:104050004703811104C089E20E940F10F0CF85E36D
:10406000FBCF81E0EFCF0F931F93CF93DF93C42F4C
:10407000D22FFC0182818823C9F040934A030E9419
:104080008624909349038093480380E28C0F883004
:1040900040F4C77081E001C0880FCA95EAF70E941A
:1040A0003709DF91CF911F910F91089510914A0325
:1040B000141332C080914803909149030E949E24BA
:1040C000883C910548F5C0E2CD0F1D17B9F080E29C
:1040D000810F883040F4177081E001C0880F1A9575
:1040E000EAF70E943E09C83048F481E09D2F97709E
:1040F00001C0880F9A95EAF70E943709802F0E9425
:104100002E09C83070F6D77081E001C0880FDA95AB
:10411000EAF70E943E09C5CF80E28C0F883008F68E
:10412000C77081E001C0880FCA95EAF7F2CF0F93FC
:10413000DB0188519C4787309105A0F5FC01E051D7
:10414000F24D0C94112D06E221EE41EE6AE17CE77E
:10415000CD010E94332080E00F91089507E225EE03
:1041600045EE6BE17CE7F4CF06E221EE40EE68E13C
:104170007CE7EECF07E225EE44EE69E17CE7E8CF8D
:1041800006E221EE42EE6CE17CE7E2CF07E225EEAB
:1041900046EE6DE17CE7DCCF08E221E045EE6EE122
:1041A0007CE7D6CF12968C91882319F010924A039F
:1041B000D3CF81E0D1CF1F93CF93DF9387372CE705
:1041C000920759F0C1E088379C47E1F4FB01C281B6
:1041D000CC2371F10E941E2106C0FB01C281CC23B9
:1041E000B1F00E941B210E940C0C0E942121D82FAB
:1041F0000E941E21C82F0E941B214D2F6C2F0E9450
:10420000330DC0E08C2FDF91CF911F9108950E9454
:104210001B210E94180C0E942121182F0E941E2190
:10422000D82F0E941B21412F6D2F0E94330DEACF02
:104230000E941E21EECF80912A01089580912901CC
:1042400008958091280108958EE14B9B02C0815012
:10425000E1F74B9BFECF08955B9880E28A95F1F7DA
:104260005B9A0895FC013BE03A95F1F798E020E075
:1042700080E031E040E14A95F1F7880F4B9B02C0A6
:104280008160232742E04A95F1F7000040E14A951A
:10429000F1F7915079F790E19A95F1F799B132E001
:1042A0003A95F1F7000040E14A95F1F793FB992721
:1042B00090F992272081920F90830895A1E0B0E0B9
:1042C000E4E6F1E20C942A2D19828C017C01E60EC1
:1042D000F11C0E151F0541F481E09981911180E0D8
:1042E0002196E6E00C94462D0E942421CE010196F1
:1042F0000E943221F80181938F01EBCF539A5B9A90
:10430000089553985B9AEB9AE9E6F0E080818F7309
:10431000808308956150770B91E001C0990F6A95F1
:10432000EAF720E031E0911108C0222391F05B9A76
:1043300080E28A95F1F75B980895492F482339F078
:104340005B9A232740E24A95F1F79695ECCF5B986C
:10435000F9CF5B98EDCFFF920F931F93CF93DF932D
:10436000EC018C01060F111DC017D10729F4CDB740
:10437000DEB7E5E00C94472DF9900E942C2168E00F
:104380008F2D0E948A21F0CF1F920F920FB60F92AD
:1043900011240F931F932F933F934F935F936F932A
:1043A0007F938F939F93AF93BF93EF93FF93CF939D
:1043B000DF930F92CDB7DEB719820E942421CE0180
:1043C00001960E943221082F069506950695282F02
:1043D00022952570902F9570290F922F9370269516
:1043E0002695920F982797708981982B09F05CC0C9
:1043F000043008F059C080E18A95F1F75B9A539A2E
:1044000082E08A95F1F700C05B9888E0089F800100
:104410001124D801A05FBE4F1696ED91FC9117971D
:104420003097A9F06091B3017091B40114962D9169
:104430003C911597260F371F11968D919C911297DD
:10444000680F791F13964C9113978C910995F80179
:10445000E05FFE4F6381662351F02091B3013091FC
:10446000B40184819581820F931F0E94AB210E9429
:104470002C2180E18A95F1F75B9853985B9A80E153
:104480008A95F1F7F801E05FFE4F6081662351F0F5
:104490002091B3013091B40181819281820F931FE9
:1044A0000E945E210E9424210F90DF91CF91FF9105
:1044B000EF91BF91AF919F918F917F916F915F919C
:1044C0004F913F912F911F910F910F900FBE0F9021
:1044D0001F9018950F931F93CF93DF93EC010497D0
:1044E0000CF04CC0F894539A5B9885E08A95F1F7EC
:1044F00000009C2F969595708C2F8570980F892FB2
:1045000083709695969523E0CC0FDD1F2A95E1F7F1
:10451000980F8E01092B0E942C2100C068E0802F8B
:104520000E948A2180E18A95F1F753985B9A4B9B10
:104530001EC087E090E04B991CC0FE01E05FFE4F7B
:1045400063816623F9F02091B3013091B401848135
:104550009581820F931F0E945E21811113C0539A8F
:104560005B9A7894DF91CF911F910F91089500C0CD
:10457000DECF019729F4539A5B9A789480E0F2CFCA
:1045800000C0D9CF0E94242180E28A95F1F75B9880
:10459000539A80E18A95F1F7C05FDE4F6881662308
:1045A00051F02091B3013091B40189819A81820F39
:1045B000931F0E94AB210E942C21789481E0D2CFDE
:1045C00090939B0280939A02089590935103809355
:1045D000500308950E944F17811103C080914B032F
:1045E0000895E0915003F0915103309729F0019024
:1045F000F081E02D0995089580E00895EF92FF92F3
:104600000F931F93CF93DF938C01E0915003F091B0
:104610005103309791F10280F381E02D099580914B
:10462000220382FF2AC080FF04C089E899E00E942B
:10463000D805D0E0C0E083E8E82E89E0F82E80912C
:10464000220380FF0EC0F801EC0FFD1F80811F9236
:104650008F93FF92EF920E9471060F900F900F9030
:104660000F902196C830D10551F78091220380FF29
:1046700004C081E899E00E94D805CDB7DEB7E6E036
:104680000C94462DA3E0B0E0E8E4F3E20C942E2D68
:1046900020914E0330914F0328173907A1F09093D2
:1046A0004F0380934E03E0915003F09151033097F4
:1046B00051F023E029839B838A830680F781E02DD4
:1046C000CE01019609952396E2E00C944A2DA3E0D1
:1046D000B0E0EDE6F3E20C942E2D20914C033091E6
:1046E0004D0328173907A1F090934D0380934C0395
:1046F000E0915003F0915103309751F024E0298369
:104700009B838A830680F781E02DCE01019609956F
:104710002396E2E00C944A2D9C012E5F3F4FAC01A2
:10472000485F5F4F80E02417350709F40895F901C9
:1047300091919F019923B9F38F5FF5CF662349F0DB
:10474000FC01329608962191261729F0E817F907FF
:10475000D1F780E0089581E008959C01FC01329634
:104760009FEF80E04191461751F09F3F19F44111AE
:1047700001C0982F8F5F8630A9F79F3F09F40895F5
:10478000290F311D97FD3A95F90162830895FC01C7
:10479000329608962191261303C0DF0111971C92CF
:1047A000E817F907B9F708950E94AD2308950E940C
:1047B000C7230895029626E0FC0111922A95E9F795
:1047C000089508950E94E1230895811106C081E0B3
:1047D000809352030E94E223089582E0F9CF83E0A0
:1047E000809352030E94E22308950E94E5230895D6
:1047F00081E0809352030E94E22308950E94F823EF
:104800000895089508950E94022408950895089532
:104810000E9401240895CF930E9406240E94CE1680
:104820000E940724C0E08C2F0E943515811105C01D
:10483000CF5FCA30C1F7CF91089581E0FCCF85B733
:10484000806885BF85B7806885BF08951F921FB6B1
:104850001F9211248F939F93AF93BF938091530323
:10486000811113C080917D0390917E03A0917F03FD
:10487000B09180034196A11DB11D80937D0390935B
:104880007E03A0937F03B0938003BF91AF919F916C
:104890008F911F901FBE1F901895809185038430C3
:1048A00031F10E947A071092530388E190E020E4EE
:1048B0000FB6F894A895809360000FBE2093600017
:1048C00083B7817F846083BF83B7816083BF78941F
:1048D000889583B78E7F83BF0FB6F894A895809193
:1048E0006000886180936000109260000FBE0895A0
:1048F0000E948E0B0E947F07089582E084BD93E0A2
:1049000095BD9AEF97BD80936E0008952FB7F894E8
:1049100080917D0390917E03A0917F03B0918003ED
:104920002FBF08952FB7F89460917D0370917E0397
:1049300080917F03909180032FBF08959C014FB712
:10494000F89480917D0390917E03A0917F03B091B4
:1049500080034FBF821B930B0895CF92DF92EF929B
:10496000FF922FB7F894C0907D03D0907E03E09023
:104970007F03F09080032FBFA7019601261B370B02
:10498000480B590BCA01B901FF90EF90DF90CF900F
:10499000089578941F921FB61F9211248F939F93AE
:1049A000AF93BF9380917D0390917E03A0917F038D
:1049B000B09180030196A11DB11D80937D0390935A
:1049C0007E03A0937F03B0938003BF91AF919F912B
:1049D0008F911F901FBE1F90189581E08093E0007B
:1049E00080E28093D8001092C9008FE19EE4019785
:1049F000F1F700C0000087E090EBDC0180938E03AC
:104A000090938F03A0939003B093910388E19CE06F
:104A10000FB6F894A895809360000FBE9093600045
:104A2000FFCF88E19CE00FB6F894A89580936000D2
:104A30000FBE90936000FFCF80915F0308950895AB
:104A40009B01BA01909185039430E9F48F708093B3
:104A5000E9009FEF8091E800915085FD06C085ED4B
:104A60008A95F1F700009111F5CF8091E80085FF5C
:104A70000AC050E040E0C9010E941E288091E80071
:104A80008E778093E800089543E050E0BC0184E015
:104A90000E9420250895CF93DF93EC0148E050E079
:104AA000BC0181E00E94202588E0FE01A7E5B3E07B
:104AB00001900D928A95E1F7DF91CF9108956032D0
:104AC00031F440E250E0BC0182E00E9420250895CC
:104AD0008FEA99E00E94D80580918403811109C072
:104AE0000E94FD290E945A2A8091E20084608093EE
:104AF000E20008958BEA99E00E94D80510928403A1
:104B0000089587EA99E00E94D8050E94F823089545
:104B100083EA99E00E94D8056091810381E06111E8
:104B200001C080E00E94EF2308958FE999E00E9480
:104B3000D8059091850381E0943009F080E0609180
:104B400081030E94F5230895209155032F5F822F42
:104B500062E30E94052D992319F0209355030895CF
:104B600010925503809156038823F1F080918503BC
:104B70008430C1F49091E9009F702091EC00822F65
:104B8000817020FD80E8892B95E09093E900909159
:104B9000EB0090FF04C09091EE0097FD08C08F706D
:104BA0008093E9001092560308951092F1009091BD
:104BB000E80095FDFACF9091E80090FFF0CF90913A
:104BC000E8009E779093E800EACF42E061EC81E054
:104BD0000E94792942E261EC84E00E94792942E254
:104BE00061EC82E00E94792942E260EC83E00E945D
:104BF000792942E261EC85E00E9479299091850350
:104C000081E0943009F080E0609181030E94E52307
:104C1000089580918703833009F463C030F48130B4
:104C2000E1F1823009F4A0C008958A3009F48CC003
:104C30008B3009F471C0893009F052C0809186032D
:104C4000813209F04DC080918A0390918B030097C7
:104C500019F0029709F044C08091E800877F8093A3
:104C6000E8008091E80082FF37C09091F3008091C6
:104C7000F200029731F48091F100813011F086301A
:104C800021F48091F10080935F038091E8008B779D
:104C90008093E8000E94AD2923C080918603813A69
:104CA000F9F48091E800877F8093E80080918A037F
:104CB00090918B03892B61F468E087E593E070E0C5
:104CC0000E94BC288091E8008B778093E8000895CB
:104CD00060E090E080E0F3CF809185038111C1CF47
:104CE000089580918603813AD9F780918A03909143
:104CF0008B03892BA9F78091E800877F8093E800D8
:104D00008091E80080FFFCCF809133018093F10017
:104D10008091E8008E77BCCF80918603813201F7C5
:104D200080918A0390918B03892BD1F68091E800C2
:104D3000877F8093E8000E94AD298091880380934B
:104D400033010E948E0B089580918603813241F6D3
:104D50008091E800877F8093E8000E94AD298091D0
:104D6000890380936003089580918603813A09F056
:104D7000B7CF8091E800877F8093E8008091E800BA
:104D800080FFFCCF80916003C1CF9FB7F894109251
:104D900056039FBF90918503943009F048C020913D
:104DA000E9002F703091EC00932F917030FD90E866
:104DB000922B25E02093E9002091EB0020FF34C0E6
:104DC0002091EE0027FF30C020915403222321F0D0
:104DD0002091E80025FF28C01092540326E030916E
:104DE000E80035FF14C08093F1008091E80085FD54
:104DF00027C08091E80080FFFCCF8091E8008E778B
:104E00008093E8009F709093E90080E008953091CE
:104E10008503343049F43091EB0035FD05C0215055
:104E200041F481E0809354039F709093E9008FEFE9
:104E30000895EFE9FFE03197F1F700C00000CFCF10
:104E40008FB7F89421E0209356038FBFDBCF84B750
:104E5000877F84BF0FB6F894A89580916000886121
:104E600080936000109260000FBE80E890E00FB663
:104E7000F89480936100909361000FBE0E94FE231E
:104E800008950E94FD290E945A2AE2EEF0E08081F6
:104E90008460808378940E94D82C08958BE291E0FE
:104EA0000E94E522089580918503853051F48BE9B5
:104EB00099E00E94D80580918503853019F00E9401
:104EC000782408950E944D2480918303882399F3C8
:104ED0000E940B24882379F30E9408280E948E0BDD
:104EE0002FEF83EC99E0215080409040E1F700C023
:104EF0000000E1CFA0E2B0E0E0E8F7E20C942E2D54
:104F000080918503843009F583E08093E9008091E6
:104F1000E80082FF1AC08091E80090E085FF09C098
:104F200050E040E060E270E0CE0101960E946D2802
:104F300091E08091E8008B778093E800992329F035
:104F400060E2CE0101960E94111AA096E2E00C9454
:104F50004A2D9A0140918C0350918D030E94B127F4
:104F60000895492F55274330510521F168F4413008
:104F7000510509F443C04230510509F444C090E0A2
:104F800080E050E040E026C04132510551F142320C
:104F90005105A9F76430710590F7FB01EE0FFF1F73
:104FA000E757FD4F408151816B577D4FFB01808159
:104FB00090E010C099278130910581F0009729F089
:104FC0000297E9F6E3EBF9E002C0EDEDF9E0849138
:104FD00090E0AF01F901518340830895E5ECF9E0D9
:104FE000F6CF6430710558F6660F771FFB01EF5658
:104FF000FD4F4081518189E090E0ECCF82E190E06B
:105000004CE55AE0E7CF8BE790E041EE59E0E2CF84
:1050100080E189BD82E189BD09B400FEFDCF8091A8
:10502000D8008F7D8093D8008091E00082608093CB
:10503000E0008091E00081FDFCCF0895AF92BF9227
:10504000CF92DF92FF920F931F93CF93DF936C0168
:10505000EB018A010E94CC29F82E811123C0011591
:10506000110539F0F80180819181C81BD90BC80E58
:10507000D91EB12CA12C2097A9F08091E80085FDC4
:1050800022C08091E8008E778093E8000115110519
:10509000A1F0F80180819181A80EB91EB182A08291
:1050A00085E0F82E8F2DDF91CF911F910F91FF900A
:1050B000DF90CF90BF90AF9008950E94CC298823B5
:1050C000D1F2F82EEFCFF60181916F018093F100BC
:1050D0002197FFEFAF1ABF0ACECFAF92BF92CF9208
:1050E000DF92FF920F931F93CF93DF936C01EB013D
:1050F0008A010E94CC29F82E811123C001151105C7
:1051000039F0F80180819181C81BD90BC80ED91ED6
:10511000B12CA12C2097A9F08091E80085FD22C038
:105120008091E8008B778093E80001151105A1F0CC
:10513000F80180819181A80EB91EB182A08285E01C
:10514000F82E8F2DDF91CF911F910F91FF90DF905F
:10515000CF90BF90AF9008950E94CC298823D1F2C0
:10516000F82EEFCF8091F100F60181936F01219726
:10517000FFEFAF1ABF0ACECFFC0180918C03909154
:105180008D0386179707A0F06115710529F490919A
:10519000E8009E779093E80090E06115710551F466
:1051A000911108C08091E80082FF34C080E008952A
:1051B000BC01F2CF809185038823C1F18530C1F114
:1051C0008091E80083FD30C08091E80082FDEACF45
:1051D0008091E80080FFE1CF8091F3002091F20000
:1051E000382F6115710519F02830310558F091E01C
:1051F0002830310509F090E02091E8002E772093C7
:10520000E800CBCF81918093F100615071092F5F4D
:105210003F4FE7CF80918503882341F0853041F0EF
:105220008091E80083FFBECF81E0089582E0089579
:1052300083E00895FC0180918C0390918D03861783
:105240009707A0F06115710529F48091E8008E7729
:105250008093E80090E06115710551F4911108C048
:105260008091E80082FF35C080E00895BC01F2CF54
:10527000809185038823C9F18530C9F18091E800C8
:1052800083FD31C08091E80082FDEACF8091E80083
:1052900080FFE1CF8091F3002091F200382F61155B
:1052A000710519F02830310558F091E028303105AA
:1052B00009F090E08091E8008E778093E800CBCFF2
:1052C00084918093F1003196615071092F5F3F4FB7
:1052D000E6CF80918503882341F0853041F08091AD
:1052E000E80083FFBDCF81E0089582E0089583E068
:1052F0000895982F973028F08F708093E90081E00F
:1053000008959093E900242F762F50E0981731F0FC
:105310007091EC002091ED005091F00021FD02C051
:105320009F5FE8CF3091EB003E7F3093EB003091F0
:10533000ED003D7F3093ED003091EB003160309314
:10534000EB007093EC002093ED005093F00020915F
:10535000EE0027FDE5CF80E008958091860387FF6A
:1053600013C08091E80082FF06C08091E8008B772F
:105370008093E80004C0809185038111F2CF0895E5
:10538000809185038823D9F38091E80080FFF8CFCE
:105390008091E8008E77ECCF2091E4003091E50019
:1053A00095E6A9012091EC00822F817020FF06C0B4
:1053B0008091E80080FF06C080E008952091E80019
:1053C00022FD1AC080918503882389F0853089F0F9
:1053D0008091EB0085FD0FC02091E4003091E50045
:1053E00042175307F9F29150E1F684E0089582E004
:1053F000089583E0089581E008950E946C2A0E9438
:10540000742AE0EEF0E0808181608083E8EDF0E0D6
:1054100080818F77808319BCA7EDB0E08C918E7F5F
:105420008C9380818F7E80831092840308950F93E4
:105430001F93CF93DF930E946C2A0E94742AC8EDB9
:10544000D0E088818F77888388818068888388818D
:105450008F7D888319BC109285031092810310926E
:1054600083031092820300EE10E0F80180818B7FAD
:10547000808388818160888342E060E080E00E94D0
:105480007929E1EEF0E080818E7F8083E2EEF0E02A
:10549000808181608083808188608083F801808141
:1054A0008E7F8083888180618883DF91CF911F9177
:1054B0000F910895E8EDF0E080818F7E8083E7ED25
:1054C000F0E080818160808384E082BF81E080930E
:1054D00084030E94172A0895E8EDF0E080818E7F12
:1054E00080831092E20008951092DA001092E10099
:1054F00008951F920F920FB60F9211242F933F938E
:105500004F935F936F937F938F939F93AF93BF93CB
:10551000EF93FF938091E10082FF0BC08091E20046
:1055200082FF07C08091E1008B7F8093E1000E94A1
:10553000A4258091DA0080FF19C08091D80080FFF7
:1055400015C08091DA008E7F8093DA008091D900B7
:1055500080FF96C080E189BD82E189BD09B400FE6B
:10556000FDCF81E0809385030E9468258091E10052
:1055700080FF19C08091E20080FF15C08091E20099
:105580008E7F8093E2008091E20080618093E20050
:105590008091D80080628093D80019BC85E0809308
:1055A00085030E9488258091E10084FF2BC08091B3
:1055B000E20084FF27C080E189BD82E189BD89B511
:1055C000982F917080FFFBCF8091D8008F7D8093C2
:1055D000D8008091E1008F7E8093E1008091E2000D
:1055E0008F7E8093E2008091E20081608093E200F0
:1055F00080918103882309F449C084E08093850366
:105600000E9495258091E10083FF29C08091E200EE
:1056100083FF25C08091E100877F8093E10082E0D5
:1056200080938503109281038091E1008E7F8093A7
:10563000E1008091E2008E7F8093E2008091E200A1
:1056400080618093E20042E060E080E00E9479297E
:105650008091F00088608093F0000E948125FF9186
:10566000EF91BF91AF919F918F917F916F915F91DA
:105670004F913F912F910F900FBE0F901F90189553
:1056800019BC109285030E947A2570CF8091E300A7
:1056900087FD93E090938503B3CF1F920F920FB6CF
:1056A0000F9211242F933F934F935F936F937F93A8
:1056B0008F939F93AF93BF93CF93DF93EF93FF931A
:1056C000D091E900DF708091EC00C82FC17080FD9F
:1056D000C0E81092E9008091F000877F8093F0008D
:1056E00078940E94912B1092E9008091F0008860DC
:1056F0008093F000CD2BCF70C093E900FF91EF9124
:10570000DF91CF91BF91AF919F918F917F916F91D9
:105710005F914F913F912F910F900FBE0F901F906F
:105720001895AAE2B0E0E7E9FBE20C942D2D86E89B
:1057300093E02091F100FC012193CF01F3E08E383A
:105740009F07B9F70E9409268091E80083FF1EC1D8
:1057500080918603909187039A3008F017C1E92F52
:10576000F0E0E950F24D0C94112D803899F0823818
:1057700009F00CC180918A038F70873008F006C150
:105780008093E9008091EB0085FB882780F91092D7
:10579000E90006C080918203909183039111826099
:1057A0009091E800977F9093E8008093F100109229
:1057B000F1008091E8008E77E5C0882309F4D3C01A
:1057C000823009F0E3C0809188038111D6C08091B6
:1057D0008A038F702FEF280F263008F0D7C08093F0
:1057E000E9002091EB0020FFC8C0933031F4809194
:1057F000EB0080628093EB00C0C09091EB00906161
:105800009093EB0021E030E001C0220F8A95EAF787
:105810002093EA001092EA008091EB008860EACFC2
:105820008111B4C0109188031F778091E3008078C4
:10583000812B8093E3008091E800877F8093E800CC
:105840000E94AD298091E80080FFFCCF8091E300A9
:1058500080688093E30082E0111183E080938503E8
:1058600095C08058823008F091C080918803909153
:1058700089038C3D23E09207A1F583E08A838AE2C5
:1058800089834FB7F894DE01139620E03EE051E2A1
:10589000E32FF0E050935700E49120FF03C0E2951E
:1058A000EF703F5FEF708E2F90E0EA30C0F0C79648
:1058B0008D939D932F5F243159F74FBF8091E8005E
:1058C000877F8093E8006AE270E0CE0101960E9433
:1058D000BC288091E8008B778093E80057C0C09681
:1058E000E7CF60918A0370918B03AE014F5F5F4FEA
:1058F0000E94A927BC01892B09F448C09091E800B7
:10590000977F9093E80089819A810E941A29E1CFBC
:105910008038E1F58091E800877F8093E8008091EE
:1059200081038093F10045CF811130C090918803AD
:10593000923060F58091E800877F8093E800909333
:1059400081030E94AD2980918103882311F084E0B6
:1059500005C08091E30087FDFACF81E08093850345
:105960000E94E52513C080918803813079F481E09D
:10597000933009F080E0809383031092E9008091D6
:10598000E800877F8093E8000E94AD298091E800BD
:1059900083FF0AC08091E800877F8093E8008091B0
:1059A000EB0080628093EB00AA96E3E00C94492D13
:1059B000CF93809185038823A1F0C091E900CF7037
:1059C0009091EC00892F817090FD80E8C82B109297
:1059D000E9008091E80083FD0E94912BCF70C09375
:1059E000E900CF9108950E94FD2910928503089542
:1059F000E8EDF0E08081806180838AE18A95F1F7AB
:105A000000C08091D90081700895991B79E004C08D
:105A1000991F961708F0961B881F7A95C9F78095ED
:105A20000895EE0FFF1F0590F491E02D099469276A
:105A30009627692778278727782708952F923F92FE
:105A40004F925F926F927F928F929F92AF92BF928E
:105A5000CF92DF92EF92FF920F931F93CF93DF933A
:105A6000CDB7DEB7CA1BDB0B0FB6F894DEBF0FBE97
:105A7000CDBF09942A88398848885F846E847D84E4
:105A80008C849B84AA84B984C884DF80EE80FD80E6
:105A90000C811B81AA81B981CE0FD11D0FB6F8945C
:105AA000DEBF0FBECDBFED010895FB01DC0104C0D8
:105AB0008D910190801921F441505040C8F7881B06
:105AC000990B0895FB01DC0102C001900D92415039
:105AD0005040D8F70895F999FECF92BD81BDF89A4C
